{
  "contractName": "helloWorld",
  "abi": [
    {
      "constant": true,
      "inputs": [],
      "name": "renderHelloWorld",
      "outputs": [
        {
          "name": "",
          "type": "string"
        }
      ],
      "payable": false,
      "stateMutability": "pure",
      "type": "function"
    }
  ],
  "bytecode": "0x608060405234801561001057600080fd5b5061012a806100206000396000f300608060405260043610603e5763ffffffff7c0100000000000000000000000000000000000000000000000000000000600035041663942ae0a781146043575b600080fd5b348015604e57600080fd5b50605560c7565b6040805160208082528351818301528351919283929083019185019080838360005b83811015608d5781810151838201526020016077565b50505050905090810190601f16801560b95780820380516001836020036101000a031916815260200191505b509250505060405180910390f35b60408051808201909152600a81527f68656c6c6f576f726c64000000000000000000000000000000000000000000006020820152905600a165627a7a72305820ada7dc286d9490f2cdb4969e740f1e9545ffec9748d8d1487292db47c837b0750029",
  "source": "pragma solidity ^0.4.22;\ncontract helloWorld {\n function renderHelloWorld () public pure returns (string) {\n   return 'helloWorld';\n }\n}\n",
  "sourcePath": "/home/user/eth_lab/helloworld/contracts/HelloWorld.sol",
  "compiler": {
    "name": "solc",
    "version": "0.4.24+commit.e67f0147.Emscripten.clang"
  },
  "schemaVersion": "2.0.1",
  "updatedAt": "2018-10-25T09:03:13.314Z"
}